:020000040000FA
:0400000051EF00F0CC
:0400080007EF00F00E
:02000C000000F2
:02000E0098EC6C
:0400100001F01100EA
:1000200000016D510F01E845F9CF84F0F927A60CC6
:10003000080C500C030C030C030CF9CF84F0F927C7
:10004000A7D152D281D1B4D27AD2B2D2F9CF84F030
:10005000F927000C7E0C7E0C7E0C7E0C7E0C7E0C38
:10006000000C000C3C0C5A0C660C660C5A0C3C0C38
:10007000000C000C7E0C420C420C420C420C7E0C1C
:10008000000C000C000C000C000C000C000C000C10
:10009000000C540C2A0C540C2A0C540C2A0C540C32
:1000A0002A0C0F01116B196B216B218710691869DC
:1000B0002069109310950E6B166B1E6B0001796B07
:1000C0000001776B0001856B00017A6900017B6B91
:1000D00000010A0E866F00EE87F00F01000EEE6F32
:1000E000630E0001656F0F01000EEE6F0001652FBA
:1000F000FAD7420E0F01D66FD469D58F0F01D28186
:100100000F010B830B850F0188978A918A938A9739
:1001100089918581838784910E0E0E01F76F0D0EF4
:100120000E01FA6F070E0E01F86F0F01BF81060E68
:10013000C06FBD8F400E0F01BC6F0F01A36A200E70
:10014000A46FA58E0F0160853D0E5F6F5769200E6D
:100150005C6F608E0F01318B3D0E15EC01F0F40EDB
:1001600000016B6F28EC01F070EC01F00E01CE91F4
:100170000E01CA9B7AEC04F086EC04F091EC04F0DA
:10018000D5EC03F052EC03F00001616B00016D6BE4
:100190000001A60E666F00016A6B0001696B000129
:1001A0006E6B0001636B00016F6B0001756B0001EA
:1001B000766B0001656B0E01C28B0E01C6810F01CB
:1001C000F28EF28C0001786B70EC01F06CC072F072
:1001D00070EC01F06CC073F070EC01F06CC074F066
:1001E00000017869F1D70E01CA9B0001070E656F07
:1001F000000000000F0183960001180E656F652F47
:10020000FED70F01838612000E01CA9B0001070E64
:10021000656F000000000F0183860001180E656FF6
:10022000652FFED70F01839612000F01D5890F01AC
:10023000D46BD36B0E01CAABFDD7CA9B0F01E82F5D
:10024000F6D70F01D599D469D36B0E01CA9B120062
:100250000F01839388930F0183958895C80E000141
:10026000656F0000000000000000000000000000BA
:10027000000000000000000000000000652FF1D722
:100280000F0188838DB3FED78DA3FED78DB3FED724
:10029000080E0001656F00016BB11CD00F01839542
:1002A00000016B430F018DA3FDD78DB3FED7000175
:1002B000652FF1D70F0183958DA3FED78DB3FED7A0
:1002C00088858DB5FED78DB3FED78DA3FED78DA5BE
:1002D000FCD712000F018385E3D700016C8F120059
:1002E0000F018DB3FED78DB5FCD7080E0001686FE6
:1002F00000016C6B0F018DA3FED78DB3FED70001FB
:100300006C430F018DB56DEC01F00001682FF2D741
:100310000F018DA3FED78DB3FED70F018DA3FDD79F
:100320008DB3FED78DA3FED712000F018395C4D7DE
:100330000E01CEB152D185C0A4FF0E01CA9B0001AF
:100340006D510F01E84579D6F3EC00F00001090E7C
:100350006E6F190E0001676F672FFED7000100EE68
:1003600087F06A510F01E9270F01CF80C30ECD6FCF
:10037000CE690E01CE910F01EE51000169250F01EA
:10038000E8450F0126EC00F00F01968B926F14D117
:10039000F3EC00F01CEC03F00001665114080FE1CF
:1003A00086C07DF063EC04F00001856F0F01A59F0E
:1003B00000010A0E866503D086070F01A58F000194
:1003C00066510F0807E1000101EE00F010EE87F022
:1003D000EDEC04F000010F0E666105D0090E6665B4
:1003E00002D0EDEC04F0000178A124D0786B00017C
:1003F000826B000172A102D0000182690001735179
:1004000008E00001612B000172A903D0000161071F
:1004100061070001745108E00001632B000172BB09
:1004200003D00001630763070001726B0001736B67
:100430000001746B00016F51040846E10001090ED0
:1004400075610ED00001010E61650AD0C80E6161B0
:1004500007D000013FEC03F00001752B29EC03F0FD
:100460000001000E75650BD00001FE0E616507D01E
:1004700000013FEC03F00001750729EC03F00001D7
:10048000090E76610ED00001010E63650AD0C80E18
:10049000636107D000013FEC03F00001762B29ECEB
:1004A00003F00001000E76650BD00001FE0E6365BF
:1004B00007D000013FEC03F00001760729EC03F0C0
:1004C0000001616B0001636B00016651050806E1E4
:1004D00000016F2B6F51050801E16F6B6DD0F3ECDC
:1004E00000F01CEC03F068D0F3EC00F0190E0001F2
:1004F000676F672FFED769C083F00F01968B0001ED
:100500000A0E676F000183450F0100EC10F00F0128
:10051000FF0A926F0001080E83270E01CDA1FED7BE
:10052000CD910001672FEED70F01969B0F018581BA
:100530000001692B6951080801E1696B3DD004ECA9
:1005400001F01CEC03F00001795179A11BD00001EE
:1005500082A118D000016651010814E101EE00F0FB
:10056000000175510F01E9270A0E000176030F0102
:10057000F3510F01E927EF89EF510F0B03E03B0E19
:100580000001866F00016651020811E100017B2B1A
:1005900000017B51EF080BE100017AA108D00001B6
:1005A000796900017A6B00017B6BDEEC04F004D00A
:1005B000F3EC00F01CEC03F000016607000166514B
:1005C00006E100016D2B10EC00F00001666F0001E8
:1005D0006D51060801E16D6B12000F01CE69C30E6B
:1005E000CD6F0E01CE910F01CE69C30ECD6F0E01FE
:1005F000CDA1FED7CD910F01EE51000169250F016C
:10060000E8450F0126EC00F00F01926F00016E0724
:100610006E5111E10F01CF91090E6E6F0001692B30
:100620006951080804E1696B00010A0E6A270F018D
:10063000969B0F018580120000016A6B0001696BB7
:1006400000016E6B12000F01899184810F01899165
:100650008491000179A1120000EE87F0000175512C
:100660000F01E9270A0E000176030F01F3510F0174
:10067000E927EFCF77F0100E0F01EF6E12000001A7
:1006800079A1120000EE87F0000175510F01E927F2
:100690000A0E000176030F01F3510F01E92777C01D
:1006A000EFFF1200050E0001656FA4EC04F00001DD
:1006B0000B0E7D6F63EC04F00001716F050E0001FD
:1006C00071653FD00A0E00017D6F63EC04F00001FC
:1006D0007E6F0B0E0001705500017D6F63EC04F01E
:1006E00000017F6F01EE00F000017E510F01E9274C
:1006F0009CEC04F00A0E00017F030F01F3510F017F
:10070000E9279CEC04F070C066F00F01EF51CFE1D7
:100710000A0E0F01E9279CEC04F00001662FF5D7C3
:100720000A0E000170030F01F351E95F70C066F01B
:1007300070C0EFFF0A0E0F01E9270001662FF8D7FE
:1007400030D00B0E0001705500017D6F63EC04F09A
:1007500000017E6F0A0E00017D6F63EC04F0000162
:100760007F6F01EE00F000017E510F01E9270A0EB4
:1007700000017F030F01F3510F01E92770C066F0FC
:100780000F01EE5194E10001662FFAD7000170517C
:100790000F01E95F70C066F070C0EEFF0001662FC8
:1007A000FBD70001652F81D71200050E0001656F90
:1007B000A4EC04F000010B0E7D6F63EC04F000016B
:1007C000716F050E0001716545D00A0E00017D6F45
:1007D00063EC04F000017E6F0B0E00017055000108
:1007E0007D6F63EC04F000017F6F01EE64F00001A7
:1007F0007E510F01E9279CEC04F00A0E00017F03F3
:100800000F01F3510F01E9279CEC04F070C066F072
:100810000F01EF51CFE10A0E0F01E9279CEC04F024
:100820000001662FF5D70A0E000170030F01F35186
:10083000E95FC8EC04F070C066F070C0EFFF100E06
:100840000F01E76F0A0E0F01E927E1270001662F6C
:10085000F4D735D00B0E0001705500017D6F63ECAD
:1008600004F000017E6F0A0E00017D6F63EC04F05E
:1008700000017F6F01EE64F000017E510F01E92756
:100880000A0E00017F030F01F3510F01E92770C029
:1008900066F00F01EE518EE10001662FFAD70001DC
:1008A00070510F01E95FC8EC04F070C066F070C0D1
:1008B000EEFF100E0F01E66F0001662FF8D7000162
:1008C000652F76D7120000017CA106D07C437C9F67
:1008D0007C51B80A7C6F02D07C437C9F00017C5124
:1008E00000017D6102D07D55FBD77D6302D00F01F1
:1008F000E86B12000F01608060B0FED763CF7CF020
:1009000000017C5102E12D0E7C6F1200640E00018B
:10091000656F01EE64F00F01EE6B0001652FFBD7F0
:100920001200640E0001656F01EE00F00F01EE6B26
:100930000001652FFBD7120002E30F0184810F0134
:10094000E86B0F01EA23120000016551050804E17C
:10095000050E0001706F120000016551040804E1EA
:10096000040E0001706F120000016551030804E1DC
:10097000030E0001706F120000016551020804E1CE
:10098000030E0001706F1200020E0001706F120062
:1009900010EE87F000017E510F01E127DAEC04F040
:1009A0000A0E00017F030F01F3510F01E127DAEC7A
:1009B00004F0120002E30F01E22A120000EE87F0B9
:1009C000140E0001806F0F01EE6BEE6BEE6BEE6BA1
:1009D000EE6B0001802FF7D71200140E0001816F1B
:1009E0000F01EFA907D0100EE76FEF510F0B02E1D7
:1009F000080EE76F0F01E92AE12A0001812FF0D7E5
:020A00001200E2
:10200000F9CF84F0F9273C0C240C240C3C0C240C54
:10201000240C240C240C380C240C240C380C240C18
:10202000240C240C380C3C0C200C200C200C200C14
:10203000200C200C3C0C380C240C240C240C240CFC
:10204000240C240C380C3C0C200C200C200C3C0CD8
:10205000200C200C3C0C000C000C000C000C000CA4
:10206000000C000C000C000C000C000C000C000C10
:10207000000C000C000C000C000C000C000C000C00
:10208000000C000C000C000C000C000C000C000CF0
:10209000000C000C000C000C000C000C000C000CE0
:1020A000000C000C000C200E00017D6F63EC04F0AE
:0620B0000F01A46F1200F5
:020000040030CA
:010000008C73
:01000100FE00
:01000200FFFE
:01000300DF1D
:010004009F5C
:01000500FFFB
:01000600FFFA
:01000700FFF9
:01000800FFF8
:01000A00FFF6
:01000B00FFF5
:00000001FF
